:100000000C9426020C944E020C944E020C944E0258
:100010000C944E020C944E020C944E020C944E0220
:100020000C944E020C944E020C944E020C944E0210
:100030000C944E020C944E020C944E020C944E0200
:100040000C94430E0C944E020C94110E0C94EB0D78
:100050000C944E020C944E020C944E020C944E02E0
:100060000C948D0E0C944E02202020202020206520
:1000700070722020616472207479702020532052A5
:10008000202020202054736B0053656E646543204C
:100090006973004572723A2053656E646543206946
:1000A000730053656E64655A61686C20697300451E
:1000B00072723A2053656E64655A61686C20697388
:1000C00000517565727920616472003C71756572CA
:1000D0007920616E7A3D00546F70203D0020202011
:1000E0002053742020536C76205372742053205276
:1000F00000436865636B4653204572726F72006EF1
:100100006F207461736B732077616974696E672007
:10011000006E6F20736C61766573200054575352E4
:100120003A00545742523A004672657120746F206B
:10013000007365744672657120556E6B6E6F776ED5
:10014000203F3F20000000000800020100000304DF
:10015000070000000000000000000000002500284B
:10016000002B0000000000240027002A00040404E3
:100170000404040404020202020202030303030350
:10018000030102040810204080010204081020012D
:10019000020408102053656E64652069730045727F
:1001A000723A2053656E646520697300457272204F
:1001B00073656E64436D6420556E6B6E6F776E2051
:1001C0003F3F2000556E6B6E6F776E206572726FC9
:1001D00072206174206164647265737320307800EA
:1001E0004932432064657669636520666F756E6485
:1001F00020617420616464726573732030780053E9
:1002000063616E6E6520626973200066696C654D7E
:100210006F64653A005461726765743A0074617284
:10022000723A006D795372743A00746F705072694B
:100230006D3A2000746F705072696D20616674654C
:1002400072002020546F70207072696D00546172CA
:10025000676574200052656D6F7465203A202047F1
:1002600028656E6572292052286561642920462818
:1002700069656C6429202000496E666F2020203A51
:100280002020692049206A20730044656275672038
:10029000203A20205A207A3A207A466C6F77203113
:1002A0002C207A4E657720322C207A546561636861
:1002B00020342C207A436865636B2036342C207AF6
:1002C000446574203132382000536C6176657320A8
:1002D0003A202064286574656374292C2041286EB7
:1002E00066292C2045287365742066726571292C57
:1002F000206D204D207020502C204F2C6F287665CB
:100300007276696577292C20742861726765742973
:100310002C20542869636B73292C2056287365742C
:100320002074776920616472290053656E647320BC
:10033000203A202063286F6D6D616E64292C20683F
:10034000286E6577292C20662869656C64292072DF
:100350002865616429207320005175657269657391
:100360003A2020712875657279292C206528656CE2
:100370006170736564292C204728746F705072690E
:100380006D2920005461736B7320203A202061286E
:10039000737369676E292C2062286567696E292C42
:1003A0002067286F207465616368496E292C206B73
:1003B00028696C6C292C206C28697374292C2020E6
:1003C0006E286577292C204E28657729004D6173AA
:1003D00074657220636F6D6D616E64733A003F3FA8
:1003E00020005A656967436C75005A65696700614A
:1003F00075746F52756E206973005461726765740D
:1004000054574920416472200076657269667920EC
:10041000005469636B2069730054617267657400EE
:100420005175657279206973005442440066696CA5
:10043000654D6F6465206973006E65775461736BF9
:10044000206E6F207461736B7300AC0F11241FBE9C
:10045000CFEFD8E0DEBFCDBF11E0A0E0B1E0EEE12C
:10046000F2E302C005900D92AC3EB107D9F724E04B
:10047000ACEEB1E001C01D92AF38B207E1F712E077
:10048000C6E2D2E004C02197FE010E943715C532B2
:10049000D107C9F70E94E50F0C940D190C940000C8
:1004A00008950895AF92BF92CF92DF92EF92FF929C
:1004B0000F931F93CF93DF936C017B018B01040F8C
:1004C000151FEB015E01AE18BF08C017D10759F028
:1004D0006991D601ED91FC910190F081E02DC6016A
:1004E0000995892B79F7C501DF91CF911F910F9164
:1004F000FF90EF90DF90CF90BF90AF900895FC01F8
:10050000538D448D252F30E0842F90E0821B930B78
:10051000541710F0CF96089501970895FC01918D1E
:10052000828D981761F0A28DAE0FBF2FB11D5D9621
:100530008C91928D9F5F9F73928F90E008958FEFC3
:100540009FEF0895FC01918D828D981731F0828D77
:10055000E80FF11D858D90E008958FEF9FEF0895CE
:10056000FC01918D228D892F90E0805C9F4F821B32
:1005700091098F739927089586EE93E00E94B00247
:1005800021E0892B09F420E0822F089580E090E09B
:10059000892B29F00E94BC0281110C94000008955F
:1005A000FC01A48DA80FB92FB11DA35ABF4F2C91E8
:1005B000848D90E001968F739927848FA689B789DF
:1005C0002C93A089B1898C91837080648C93938DD6
:1005D000848D981306C00288F389E02D80818F7D79
:1005E00080830895EF92FF920F931F93CF93DF9331
:1005F000EC0181E0888F9B8D8C8D98131AC0E8895F
:10060000F989808185FF15C09FB7F894EE89FF892D
:100610006083E889F98980818370806480839FBFCB
:1006200081E090E0DF91CF911F910F91FF90EF90CB
:100630000895F62E0B8D10E00F5F1F4F0F731127DB
:10064000E02E8C8D8E110CC00FB607FCFACFE88916
:10065000F989808185FFF5CFCE010E94D002F1CFCC
:10066000EB8DEC0FFD2FF11DE35AFF4FF0829FB78A
:10067000F8940B8FEA89FB8980818062CFCF0F933A
:100680001F93CF93DF938C01D0E0C0E0F801EC0F13
:10069000FD1F6491662341F086EE93E00E94F20212
:1006A000892B11F02196F2CFCE01DF91CF911F91CE
:1006B0000F910895CF93DF93EC01888D8823B9F0D3
:1006C000AA89BB89E889F9898C9185FD03C080815D
:1006D00086FD0DC00FB607FCF7CF8C9185FFF2CFDA
:1006E000808185FFEDCFCE010E94D002E9CFDF915E
:1006F000CF91089590E0FC01EB5BFE4F2491FC014B
:10070000EF57FE4F3491FC01E359FE4FE491EE2385
:10071000C9F0222339F0233001F1A8F4213019F176
:10072000223029F1F0E0EE0FFF1FE75AFE4FA591AE
:10073000B4918FB7F894EC91611126C030953E23A7
:100740003C938FBF08952730A9F02830C9F024309A
:1007500049F7809180008F7D03C0809180008F7762
:1007600080938000DFCF84B58F7784BDDBCF84B5E5
:100770008F7DFBCF8091B0008F778093B000D2CF78
:100780008091B0008F7DF9CF3E2BDACF3FB7F89440
:100790008091720290917302A0917402B0917502DF
:1007A00026B5A89B05C02F3F19F00196A11DB11DCC
:1007B0003FBFBA2FA92F982F8827BC01CD01620F08
:1007C000711D811D911D42E0660F771F881F991FC3
:1007D0004A95D1F708958F929F92AF92BF92CF9290
:1007E000DF92EF92FF924B015C010E94C6036B0106
:1007F0007C010E94C6036C197D098E099F09683E21
:10080000734081059105A8F321E0821A9108A1089F
:10081000B10888EEC80E83E0D81EE11CF11C8114DB
:100820009104A104B10429F7FF90EF90DF90CF90DD
:10083000BF90AF909F908F90089520914E02260F09
:100840003327331F21323105ECF42091BC03FC0126
:1008500090E080E0243069F082E00895A0914E029B
:100860002191AC01425D5D4FA40FB52FB11D2C93BA
:100870000196861798F380914E02680F60934E029E
:1008800080E0089581E008951092BC0381E0809398
:10089000BB031092960361E082E10E947A0361E05B
:1008A00083E10E947A03E9EBF0E080818E7F808310
:1008B00080818D7F808388E48093B80085E4809375
:1008C000BC000895CF93DF9391E090932D0288238D
:1008D000B9F0C091B800D091BA008091BC008A7B79
:1008E0008093BC0060E082E10E947A0360E083E1D3
:1008F0000E947A030E944404D093BA00C093B800C7
:10090000DF91CF9108958F929F92AF92BF92CF9235
:10091000DF92EF92FF920F931F93CF93DF93D091CB
:10092000E503D13208F0D7C0182FC091E4030E942C
:10093000C6036B017C018091BC0381116BC082E016
:100940008093BC031093BB038FEF8093BA03109284
:10095000B903D093B803A4ECB3E0E8E9F3E080E096
:10096000D81391C01092970380919703CC0FC82B96
:10097000C093970380919603813009F088C010924C
:1009800096030E94C6036B017C01809197038093BC
:10099000BB008091BE039091BF03A091C003B091B2
:1009A000C103892B8A2B8B2BA1F00E94C6030091D7
:1009B000BE031091BF032091C0033091C1036C1995
:1009C0007D098E099F09061717072807390708F4BC
:1009D00042C08091BC0083FDD8CF85EC8093BC00E1
:1009E0000E94C6036B017C018091BC03823009F434
:1009F00050C08091BA038F3F09F46FC08091BA0351
:100A0000803209F46CC08091BA03803309F469C064
:100A100084E026C08091BE039091BF03A091C003E3
:100A2000B091C103892B8A2B8B2B09F484CF0E94B0
:100A3000C6038090BE039090BF03A090C003B09007
:100A4000C1036C197D098E099F0986169706A806B1
:100A5000B90608F070CF8091BD030E94620485E062
:100A60001092C3031092E5031092C203DF91CF915D
:100A70001F910F91FF90EF90DF90CF90BF90AF90BC
:100A80009F908F9008959D9191938F5F69CF85EE90
:100A9000A5CF8091BE039091BF03A091C003B091F8
:100AA000C103892B8A2B8B2B09F49ECF0E94C6038E
:100AB0000091BE031091BF032091C0033091C10388
:100AC0006C197D098E099F09061717072807390732
:100AD00008F08ACFC0CF81E0C3CF80E0C1CF82E0F1
:100AE000BFCF83E0BDCF0895E0917B0280917A0271
:100AF000E81730F4F0E0E35FFD4F808190E0089567
:100B00008FEF9FEF089590917B0280917A022FEFF3
:100B10003FEF981748F4E92FF0E0E35FFD4F2081A5
:100B200030E09F5F90937B02C901089580917A0223
:100B300090917B02891B990B0895CF92DF92EF92DF
:100B4000FF920F931F93CF93DF937C01CB018A0118
:100B50002091C203222389F0EB016B01C40ED51E44
:100B6000CC15DD0569F06991D701ED91FC910190FB
:100B7000F081E02DC7010995F3CF642F0E941D0479
:100B8000C801DF91CF911F910F91FF90EF90DF90FF
:100B9000CF900895CF93DF931F92CDB7DEB76983CF
:100BA0002091C2032223F9F02091E503203258F06E
:100BB00021E030E0FC013383228390E080E00F905D
:100BC000DF91CF9108958091C303E82FF0E0EC53BB
:100BD000FC4F998190838F5F8093C3038093E503DB
:100BE00081E090E0ECCF61E0CE0101960E941D040F
:100BF000F7CF90E080E008952F923F924F925F925E
:100C00006F927F928F929F92AF92BF92CF92DF921C
:100C1000EF92FF920F931F93CF93DF93CDB7DEB781
:100C2000A2970FB6F894DEBF0FBECDBF89A39AA3DB
:100C300028013901842E58A31B011E8E44E04F8FDA
:100C4000ACE19A2EFAE0AF2EB12CC12CD12CE12CC4
:100C5000F12C00E010E09201A301682D78A1C10100
:100C60000E94A01559016A017B018C015F8D5150D2
:100C70005F8FE92D51110CC0EFEFE90DA1E0B0E05D
:100C8000AC0FBD1FA90DB11D8EE28C9393E09F8F19
:100C900099249A949E0E41E050E04C0F5D1F4E0F38
:100CA000511DFA0180E38A0D80839201A301682D12
:100CB00078A1C1010E940816EAE0AE2EB12CC12C29
:100CC000D12CE12CF12C00E010E00E94A2152901AA
:100CD0003A01862E78A31C01A0E00E941A1611F09A
:100CE0009110B0CFE1E0E90DA9A1BAA18FE1890D82
:100CF00021E02E0F41E050E04C0F5D1F4E0F511DC3
:100D0000FA0190819D93992319F0E22F2813F0CFD7
:100D1000A2960FB6F894DEBF0FBECDBFDF91CF9184
:100D20001F910F91FF90EF90DF90CF90BF90AF9009
:100D30009F908F907F906F905F904F903F902F90FB
:100D400008956115710579F0FB0101900020E9F724
:100D50003197AF01461B570BDC01ED91FC910280EE
:100D6000F381E02D099490E080E008958F929F92A6
:100D7000AF92BF920F931F93CF93DF93CDB7DEB7A0
:100D8000A1970FB6F894DEBF0FBECDBF19A24230B7
:100D900008F44AE08E010F5D1F4F842E912CB12C78
:100DA000A12CA50194010E941515E62FB901CA01D5
:100DB000EA30E4F4E05DD801EE938D01232B242B7F
:100DC000252B79F7BD0186EE93E00E94A106A1963E
:100DD0000FB6F894DEBF0FBECDBFDF91CF911F914C
:100DE0000F91BF90AF909F908F900895E95CE3CFF3
:100DF000BC0186EE93E00C94A106CF93DF93EC0147
:100E0000FE0164912196662329F086EE93E00E940C
:100E1000F202F6CF63E571E086EE93E0DF91CF91C9
:100E20000C94A10642E050E06CE271E086EE93E0A3
:100E30000C945202CF93DF930E943F03EC010E9477
:100E400012078C0F9D1FDF91CF910895CF93DF93F1
:100E5000BC0186EE93E00E94A106EC010E941207FD
:100E60008C0F9D1FDF91CF910895AF92BF92CF92CB
:100E7000DF92EF92FF920F931F93CF93DF93CDB743
:100E8000DEB76E970FB6F894DEBF0FBECDBF590127
:100E90006A017B010E94FD069501A601B701CE0102
:100EA00001960E94FC05CE0101960E9426076E96CF
:100EB0000FB6F894DEBF0FBECDBFDF91CF911F916B
:100EC0000F91FF90EF90DF90CF90BF90AF9008957B
:100ED0006F927F928F929F92AF92BF92CF92DF924A
:100EE000EF92FF920F931F93CF93DF93CDB7DEB7AF
:100EF000C659D1090FB6F894DEBF0FBECDBF0E9410
:100F000012078DED90E00E941A078FEFE82E82E025
:100F1000F82ECC24C394D12C5E0185E6A80EB11C1A
:100F20002FE2622E21E0722EFE0131964F01F70171
:100F30000685178520893189428953896489758995
:100F4000C5010E94FC05BF92AF92F701808D282F4A
:100F5000082E000C330B3F938F93818D282F082E82
:100F6000000C330B3F938F938689282F082E000C9B
:100F7000330B3F938F9387891F928F9385851F92A1
:100F80008F93DF92CF927F926F929F928F920E9467
:100F90003516C4010E942607FFEFCF1ADF0A8DE045
:100FA000E80EF11C0FB6F894DEBF0FBECDBFFBE01C
:100FB000CF16D10409F0BBCFCA56DF4F0FB6F89455
:100FC000DEBF0FBECDBFDF91CF911F910F91FF907C
:100FD000EF90DF90CF90BF90AF909F908F907F90D9
:100FE0006F9008956F927F928F929F92AF92BF926F
:100FF000CF92DF92EF92FF920F931F93CF93DF93E5
:10100000CDB7DEB7E2970FB6F894DEBF0FBECDBF07
:101010008091F902882309F479C08BE491E00E9461
:10102000F80688E690E00E941A0701EA12E080E8DC
:10103000C82E82E0D82EEE24E394F12C25E5A22ED2
:1010400021E0B22ECE0101964C018E2D7E2C6F2C0C
:1010500090917F02992321F0F80195819923A1F1C4
:1010600090910101981355C08FE491E00E94F80619
:10107000F80181851F928F938085282F082E000C00
:10108000330B3F938F938781282F082E000C330B4F
:101090003F938F9386811F928F9385811F928F93A9
:1010A000F60184811F928F936F927F92BF92AF92CD
:1010B0009F928F920E943516C4010E9426070FB698
:1010C000F894DEBF0FBECDBF9FEFE91AF90A0B5FA0
:1010D0001F4FEFEFCE1ADE0AFFE0EF16F10409F022
:1010E000B4CFE2960FB6F894DEBF0FBECDBFDF914E
:1010F000CF911F910F91FF90EF90DF90CF90BF9015
:10110000AF909F908F907F906F9008950E941207EC
:1011100088CF82E591E0AACFCF93DF9390917E02B2
:10112000891770F4EA01CB010E94FD06BE0190E030
:1011300080E04AE00E94B606DF91CF910C9412073E
:10114000DF91CF910895EF92FF920F931F93CF936A
:10115000DF93CDB7DEB728970FB6F894DEBF0FBE8A
:10116000CDBF09831A832B833C834D835E836F83BA
:1011700078879091000121E02093C2039093E403CB
:101180001092C3031092E503682F83E894E00E9455
:10119000CA058E010F5F1F4F7E0189E0E80EF11C2A
:1011A000F80161918F0183E894E00E94CA050E1551
:1011B0001F05B1F781E00E948304182F811115C02B
:1011C00050E040E062EA70E085E00E948C08812FE8
:1011D00028960FB6F894DEBF0FBECDBFDF91CF913A
:1011E0001F910F91FF90EF900895482F50E06FEA04
:1011F00070E081E0EACFCF939091000121E020934D
:10120000C2039093E4031092C3031092E503682F86
:1012100083E894E00E94CA0581E00E948304C82FFD
:1012200081110AC050E040E069E870E085E00E946A
:101230008C088C2FCF910895482F50E063E970E01F
:1012400081E0F5CFCF93C82F4091000150E061ECD1
:1012500070E085E00E948C088C2F0E94FB08882398
:1012600029F09FE39093ED019093EE01CF910895C3
:10127000CF93DF93EB010E94FD06BE0190E080E07A
:101280004AE00E94B606DF91CF910C941207AF920C
:10129000BF92CF92DF92EF92FF920F931F93CF9363
:1012A000DF93122F032FF42EE52ED62EC72EB82E45
:1012B000A92EEFEFF2E0C1E0D0E08585873511F08F
:1012C000823569F421963D96CB30D105B1F76CE0BB
:1012D00070E089E394E00E94380982E044C0212F45
:1012E000302F4F2D5E2D6D2D7C2D8B2D9A2DA0E056
:1012F0000E941A1681F410918E0300918F03F090D2
:101300009003E0909103D0909203C0909303B0902B
:101310009403A09095038DE08C9FF0018D9FF00DBC
:101320001124E150FD4FDF011196118311960C93AA
:1013300011971296FC9212971396EC9213971496AB
:10134000DC9214971596CC9215971696BC92169728
:101350001796AC9282E3818787E58083128680E2CC
:101360008487838780E0DF91CF911F910F91FF9059
:10137000EF90DF90CF90BF90AF900895CF92DF9223
:10138000EF92FF92682F70E0823009F444C0A0F41D
:10139000882309F44FC090E8C92E9AE1D92E96E02F
:1013A000E92EF12C813099F081E391E0FF90EF90EC
:1013B000DF90CF900C9438098330A9F130E4C32E2C
:1013C00032E4D32E3FE0E32EF12C893069F788E236
:1013D00091E00E94380960E074E284EF90E0A70198
:1013E00096010E9415152051310941095109569560
:1013F0004795379527952093B8006091B80070E025
:1014000082E291E00E9438096091B900637070E057
:101410008CE191E0CBCF50ECC52E57E2D52E59E0B0
:10142000E52EF12CD4CF45E3C42E42E8D42EE12C96
:10143000F12CCDCF20EAC22E26E8D22EEE24E39462
:10144000F12CC5CFCF92DF92EF92FF920F931F93B3
:10145000CF93DF93C82FD09100010E94C6036B0188
:101460007C018091BC03811165C081E08093BC0345
:101470008093BB039FEF9093BA031092B9039C0F24
:101480009093B8038093970380919703DD0FD82B37
:10149000D093970380919603813009F09AC01092FF
:1014A00096030E94C6036B017C0180919703809391
:1014B000BB008091BE039091BF03A091C003B09187
:1014C000C103892B8A2B8B2BA1F00E94C6030091AC
:1014D000BE031091BF032091C0033091C1036C196A
:1014E0007D098E099F09061717072807390708F491
:1014F00042C08091BC0083FDD8CF85EC8093BC00B6
:101500000E94C6036B017C018091BC03813009F409
:1015100062C08091B9038C1710F4C091B903A8E997
:10152000B3E0EDE0F2E080E08C1751F19D919193F2
:101530008F5FFACF8091BE039091BF03A091C0034B
:10154000B091C103892B8A2B8B2B09F48ACF0E947F
:10155000C6030091BE031091BF032091C0033091D8
:10156000C1036C197D098E099F0906171707280703
:10157000390708F076CF8091BD030E946204C0E075
:1015800010927B02C0937A021092EC01EC2EF12CA7
:10159000D0917D0280917B029701281B3109C901FE
:1015A00018161906D4F583E894E00E948305E091AB
:1015B000EC0191E09E0F9093EC01F0E0E351FE4FBF
:1015C0008083DD2329F3682F86EE93E00E94F202E8
:1015D000DFCF85EE93CF8091BE039091BF03A091A2
:1015E000C003B091C103892B8A2B8B2B09F48CCFBC
:1015F0000E94C6030091BE031091BF032091C00357
:101600003091C1036C197D098E099F0906171707D0
:101610002807390708F078CFAECFDD2379F0609145
:10162000EC0170E08BEC90E0DF91CF911F910F9176
:10163000FF90EF90DF90CF900C943809DF91CF911D
:101640001F910F91FF90EF90DF90CF900895CF936F
:1016500085E40E94220920E030E0A901811124C024
:101660008CE00E94220AE1E020E030E0A901C1E024
:10167000CE0FF0E0E351FE4FE08180ED8E0F8A3017
:1016800098F4AAE0B0E00E943D152E2FEE0F330B28
:1016900020533109032E000C440B550B260F371F26
:1016A000481F591FEC2FE3CFCA01B901CF9108950C
:1016B0008F929F92AF92BF92CF92DF92EF92FF9262
:1016C0000F931F93CF93DF93CDB7DEB728970FB655
:1016D000F894DEBF0FBECDBF80E50E9422098111C4
:1016E00041C08AE00E94220A19821A821B821C824F
:1016F0001D821E821F821886AEEEB1E0FE01319679
:10170000CE0109962D912193E817F907D9F7898021
:101710009A80AB80BC80CD80DE80EF80F8848091A1
:101720007D02882341F084019501A601B70187ED70
:1017300090E00E9435079401A501B601C7012896E3
:101740000FB6F894DEBF0FBECDBFDF91CF911F91D2
:101750000F91FF90EF90DF90CF90BF90AF909F9050
:101760008F900895812C912CA12CB12CC12CD12CBF
:10177000E12CF12CE0CFCF93DF93D09100018111C8
:101780008093000183E50E942209C82F811103C0C4
:1017900083E00E94220AD09300018C2FDF91CF9129
:1017A00008952F923F924F925F926F927F928F9205
:1017B0009F92AF92BF92CF92DF92EF92FF920F93E0
:1017C0001F93CF93DF93CDB7DEB7C857D1090FB6BC
:1017D000F894DEBF0FBECDBF3BE0432E9E012F5FCE
:1017E0003F4F19014E0133E3830E911C3E0145E644
:1017F000640E711C80917C028F5F8B3038F5809372
:101800007C0250907C02852D90E02DE0289FF00115
:10181000299FF00D1124E150FD4F2081273509F05B
:10182000C4C0E1EAF2E0AA24A394B12C27812934B0
:10183000C9F03FEFA31AB30A35964FE0A416B104DE
:10184000A9F760E170E081E191E0B7C081E0D7CF16
:10185000853409F09DC081EF90E00E941A07109234
:10186000FA0296C04DE0489F9001499F300D112427
:10187000C90181509D4F6C017C019FEFE91AF90A63
:10188000F6010181F7011181228133814481558163
:1018900066817781C1010E94FC053F922F92F6017B
:1018A0008185282F082E000C330B3F938F93BF9216
:1018B000AF921F925F9226E831E03F932F939F9261
:1018C0008F920E943516C4010E94260722E5F60178
:1018D000208330E23387A28645E04A9DF0014B9D8C
:1018E000F00D1124EF55FD4F54822283B09000017A
:1018F000808180930001F6010181F701118122812D
:101900003381448155816681778189E50E94A308EE
:1019100062E370E080E090E00E94EB030FB6F89481
:10192000DEBF0FBECDBF1AE080E00E94BB0B8091EE
:10193000EE01282F082E000C330B3F938F938091DC
:10194000ED01282F082E000C330B3F938F938091CD
:10195000EC011F928F9386E791E09F938F937F9284
:101960006F920E943516C3010E9426078091ED01F7
:101970000FB6F894DEBF0FBECDBF823409F068CF3A
:101980006AE070E080E090E00E94EB03115061F6A5
:101990000EE110E020E030E040E050E060E070E078
:1019A00084E50E94A308B09200014A94411022CF1E
:1019B00060917C0270E08FEF90E00E943809C85877
:1019C000DF4F0FB6F894DEBF0FBECDBFDF91CF91D2
:1019D0001F910F91FF90EF90DF90CF90BF90AF904D
:1019E0009F908F907F906F905F904F903F902F903F
:1019F00008950F931F93CF93DF93C1EAD2E010E2D3
:101A00000FE38D811F83188718165CF40F830E94E3
:101A1000BB0B811106C08091ED018F838091EE0197
:101A20008887259682E0C93CD80759F7DF91CF9186
:101A30001F910F9108957F928F929F92AF92BF92C4
:101A4000CF92DF92EF92FF920F931F93CF93DF938A
:101A5000CDB7DEB7E2970FB6F894DEBF0FBECDBFAD
:101A6000809000010E94F90C01EA12E08DE0782ECE
:101A700099EAC92E91E0D92ECE0101965C01F801B8
:101A80009780F3E49F1234C0F801E184858180934C
:101A900000010E94270B9F938F937F936F93F80110
:101AA0008085282F082E000C330B3F938F937E9C4C
:101AB00070011124C70181509D4F7C01FC0181857B
:101AC000282F082E000C330B3F938F931F921F92E9
:101AD000DF92CF92BF92AF920E943516C5010E944D
:101AE0002607F70190820FB6F894DEBF0FBECDBF78
:101AF0000B5F1F4F92E0073E190709F68092000125
:101B0000E2960FB6F894DEBF0FBECDBFDF91CF9146
:101B10001F910F91FF90EF90DF90CF90BF90AF900B
:101B20009F908F907F90089585ED8093BC00809169
:101B3000BE039091BF03A091C003B091C10307966B
:101B4000A11DB11D23E0B695A795979587952A9578
:101B5000D1F72091BC0024FD03C01092BC0308956E
:101B60004091BE035091BF036091C0037091C103C7
:101B7000452B462B472B69F30097A105B10541F092
:101B800025E32A95F1F700000197A109B109E1CFFA
:101B90008091BD030C946204FF920F931F93CF9327
:101BA000DF9300E812E0D0E0C0E0F801F1908F018F
:101BB000CE010E94FF14F81621F06F2DCE010E9475
:101BC00007152196C132D10581F7DF91CF911F9181
:101BD0000F91FF9008951F920F920FB60F9211244C
:101BE0002F933F934F935F936F937F938F939F9325
:101BF000AF93BF93EF93FF9386EE93E00E94D002E2
:101C0000FF91EF91BF91AF919F918F917F916F91D4
:101C10005F914F913F912F910F900FBE0F901F90AA
:101C200018951F920F920FB60F9211242F938F9336
:101C30009F93EF93FF93E091F603F091F703808178
:101C4000E091FC03F091FD0382FD1BC09081809127
:101C5000FF038F5F8F7320910004821741F0E091A2
:101C6000FF03F0E0EA51FC4F958F8093FF03FF9153
:101C7000EF919F918F912F910F900FBE0F901F901A
:101C800018958081F4CF1F920F920FB60F921124F6
:101C90002F933F938F939F93AF93BF938091F502C0
:101CA0009091F602A091F702B091F8023091710282
:101CB00023E0230F2D3758F50196A11DB11D209368
:101CC00071028093F5029093F602A093F702B0930D
:101CD000F8028091720290917302A0917402B09107
:101CE00075020196A11DB11D80937202909373023B
:101CF000A0937402B0937502BF91AF919F918F91A1
:101D00003F912F910F900FBE0F901F90189526E8CE
:101D1000230F0296A11DB11DD2CF1F920F920FB6B5
:101D20000F9211242F933F934F935F936F937F9361
:101D30008F939F93AF93BF93EF93FF938091B900DD
:101D4000887F803609F44AC0F0F5883209F4A7C0CC
:101D500018F5803109F49BC0B8F4882309F4F9C060
:101D6000883009F494C0FF91EF91BF91AF919F919A
:101D70008F917F916F915F914F913F912F910F9034
:101D80000FBE0F901F901895883109F488C08032DB
:101D900051F78093BA0314C0803409F49DC040F415
:101DA0008033B9F38833F9F68093BA0385ECB0C079
:101DB000803509F485C0883509F496C0883499F6D1
:101DC0000E94940DD0CF883909F48CC038F588373B
:101DD00029F050F4883611F0803729F683E080939B
:101DE000BC031092700257C0883809F47BC0803958
:101DF00019F0803809F0B7CF80917002803208F076
:101E000071C0E091700281E08E0F8093700280912A
:101E1000BB00F0E0E05BFD4F80833DC0803B39F0CC
:101E2000E0F4803A09F479C0883A09F09CCF84E064
:101E30008093BC0310924F0210924E02E091780200
:101E4000F0917902099580914E0281110FC081E0D5
:101E500080934E0210922E0209C0803C09F4A6CF56
:101E6000883C09F4A3CF883B09F07DCFE0914F0275
:101E700081E08E0F80934F02F0E0E25DFD4F8081A4
:101E80008093BB0090914F0280914E0229C08091B7
:101E900097038093BB0085EC8093BC0064CF909146
:101EA000B9038091B803981758F5E091B90381E020
:101EB0008E0F8093B903F0E0E856FC4F8081E9CFA4
:101EC000E091B90381E08E0F8093B9038091BB004C
:101ED000F0E0E856FC4F80839091B9038091B803FD
:101EE0009817C8F285E8D8CFE091B90381E08E0F4A
:101EF0008093B9038091BB00F0E0E856FC4F8083EB
:101F00008091BB0381115CCF81E08093960384EACA
:101F10008093BC001092BC0326CF85EC8093BC005C
:101F20001092BC0380917002803230F4E091700214
:101F3000F0E0E05BFD4F10826091700270E0E09194
:101F40007602F091770280E592E009951092700296
:101F50000ACF1092BA0334CFE6EEF3E01382128276
:101F600088EE93E0A0E0B0E084839583A683B783F6
:101F70002CE031E03183208325EC30E03587248765
:101F800024EC30E03787268720EC30E0318B208B43
:101F900021EC30E0338B228B22EC30E0358B248B2C
:101FA00026EC30E0378B268B118E128E138E148E1A
:101FB000E3E8F4E01382128284839583A683B783D7
:101FC0008EE191E0918380830895CF93DF93CDB725
:101FD000DEB7E8970FB6F894DEBF0FBECDBF78949A
:101FE00084B5826084BD84B5816084BD85B582601E
:101FF00085BD85B5816085BD80916E0081608093CF
:102000006E00109281008091810082608093810037
:102010008091810081608093810080918000816047
:10202000809380008091B10084608093B1008091A2
:10203000B00081608093B00080917A0084608093CA
:102040007A0080917A00826080937A0080917A0091
:10205000816080937A0080917A00806880937A0012
:102060001092C1008FE1ECECF1E09E012F5F3F4F39
:102070001901D90101900D928A95E1F7E091F603DB
:10208000F091F70382E08083E091F203F091F30393
:102090001082E091F403F091F50383E380831092C2
:1020A000FE03E091FA03F091FB0386E08083E09168
:1020B000F803F091F903808180618083E091F80357
:1020C000F091F903808188608083E091F803F091BA
:1020D000F903808180688083E091F803F091F9032F
:1020E00080818F7D8083C9010E94260710927B0228
:1020F00010927A021092C3031092E5030E944404E6
:1021000080E592E0909379028093780281E592E0F5
:10211000909377028093760281E00E94BE09EEE8F8
:10212000F1E02491EAE7F1E08491882399F090E0CE
:10213000880F991FFC01ED59FE4FA591B491FC0148
:10214000E75AFE4F859194918FB7F894EC91E22B6A
:10215000EC938FBF61E08DE00E947A0381E0809371
:10216000030100E812E0912C812CC4010E94FF14AD
:10217000D8018D938D01BFEF8B1A9B0AE1E28E1679
:10218000910499F7E4E8F2E021EA32E03CAB2BABB2
:1021900081918F3760F4ABA9BCA915968C93868585
:1021A00087FD16868685ABA9BCA916968C932BA9AC
:1021B0003CA92B5F3F4F3CAB2BAB275E324041F736
:1021C00086EE93E00E94B002181619060CF081C04A
:1021D00086EE93E00E948E02882E682F86EE93E0B2
:1021E0000E94F20298E080E089122CC02091ED025A
:1021F0003091EE024091EF025091F0026091F102B5
:102200007091F202EAE0AE2EB12CC12CD12CE12C5F
:10221000F12C00E010E08091F3029091F4020E9412
:10222000A2152093ED023093EE024093EF025093FB
:10223000F0026093F1027093F2028093F3029093A4
:10224000F40281E090ED980D9A3008F0ABC0082CB4
:10225000000C9908A0E38A1A9108792C770C77086A
:102260008091EC02882309F489C02AE0A22EB12CC7
:10227000C12CD12CE12CF12C00E010E02091ED02DA
:102280003091EE024091EF025091F0026091F10224
:102290007091F2028091F3029091F4020E9448152D
:1022A0005401C72CD72CE72CF72C072D172D0E9493
:1022B000FF152093ED023093EE024093EF0250930E
:1022C000F0026093F1027093F2028093F302909314
:1022D000F4028FB7F8944091F5025091F6026091A4
:1022E000F7027091F8028FBF8091FB029091FC027F
:1022F000A091FD02B091FE0284179507A607B707CB
:1023000080F58091040190910501A0910601B091A2
:102310000701840F951FA61FB71F8093FB029093A0
:10232000FC02A093FD02B093FE028091FA02882382
:1023300081F00E941B0D8091F902882341F00E94D8
:10234000F2070E94680788EC91E00E94F8060E945C
:10235000D10B8091030181114EC360E08DE00E949A
:102360007A03E0E0F0E0EF2B09F42ACF0E94BC02F0
:10237000882309F425CF0E94000022CFB1E0B0935A
:10238000EC028092ED029092EE027092EF02709257
:10239000F0027092F1027092F2027092F302709267
:1023A000F40297CF811195CF1092EC0280EC91E06E
:1023B0000E94F806EFEBE80DEA3308F0F4C20E2EA7
:1023C000000CFF0BEA51FE4E0C9437152312D31468
:1023D000D314D314B612CF12DE12D314D314D314E1
:1023E000D314D314C713F01310141C14D314D31420
:1023F000D3146A14D3148914D314A3146911C81400
:10240000D314D314D314D314D314D3142012B61367
:1024100027127812B312BB12D912E112F31227134A
:10242000AC13B613B913DD130D141714301438148C
:102430004A146214D3148014D314A3146911C01461
:102440000E94D10B46CF81E40E94FB0842CF8091CD
:10245000ED02682F70E08A3008F03BC0FB01ED5CB4
:10246000FD4E0C9437156E1270123D125F12611200
:1024700063126512691267126E1286E6E3E4E9835D
:102480008A831B8280910001F1E0F093C203809364
:10249000E4031092C3031092E503B10183E894E0D2
:1024A0000E94A10681E00E94830481111BC050E0BC
:1024B00040E065E971E085E00E948C080ACF8CE677
:1024C000DDCF81E6DBCF85E7D9CF82E5D7CF89E4C1
:1024D000D5CF8CEA91E00E943809FBCE88E5CECFBB
:1024E00088E7CCCF482F50E06EE971E081E0E4CF7F
:1024F0006DE170E08FEF91E00E943809412C512C82
:1025000032014394142D21E02093C2034092E4034E
:102510001092C3031092E50381E00E9483048111AD
:102520001DC080EE91E00E943F03103120F482EC48
:1025300091E00E94F80640E1C301B2010E94B60694
:102540000E9412073FEF431A530A630A730A8EE18F
:102550004816510461047104A9F6BBCE843091F78A
:1025600084EC91E0E0CF0E94270BB3CE8091ED0286
:102570000E94BE09AECE0091ED021091EE022091B4
:10258000EF023091F0024091F1025091F20260911D
:10259000F3027091F40286E40E94A3089ACE60913F
:1025A000020191E069276093020170E08DE294E0FE
:1025B00092CF70E060E089E294E08DCF0E94580BEA
:1025C00088CE0091ED021091EE022091EF02309141
:1025D000F0024091F1025091F2026091F302709189
:1025E000F40287E4D9CF00918E0310918F032091DC
:1025F0009003309191034091920350919303609125
:10260000940370919503C1010E94FC058AE292E057
:102610000E943F03C1010E94260761E670E083E249
:1026200092E00E94380960917C0270E08DE192E0B6
:102630000E9438096091000170E085E192E00E94FB
:1026400038096091020170E08BE092E044CF109273
:102650008E0310928F0310929003109291031092A8
:10266000920310929303109294031092950381EABF
:10267000682E82E0782ED30116968C9116978230C0
:1026800009F04CC015969C9090920001992009F495
:1026900045C08DE492E00E943F03692D70E090E018
:1026A00080E04AE00E94B6060E94580B2DAB3EAB7C
:1026B0002A016FAB78AF4C0189019A01AB01BC01D3
:1026C00082E492E00E943507A0908E03B0908F03C1
:1026D000C0909003D0909103E0909203F090930308
:1026E00000919403109195032DA93EA9A2016FA911
:1026F00078ADC4010E94111689F080F020938E03FA
:1027000030938F0340929003509291036093920311
:1027100070939303809294039092950325E0620E48
:10272000711C8BA99CA98615970509F0A4CF00916F
:102730008E0310918F03209190033091910340916B
:10274000920350919303609194037091950384E3F5
:1027500092E00E943507BDCDE091ED029DE09E9F85
:10276000F0011124E150FD4FABE4A0830E94680703
:10277000B0CDE0910101B5E0BE9FF0011124EF550D
:10278000FD4F8091ED0280830E94F207A2CD8091DF
:10279000010190E02091ED0235E0389FF001399F72
:1027A000F00D1124EF55FD4F208380589D4FDC0123
:1027B00013962C930E94CC0DE7CF2091ED0230911F
:1027C000EE024091EF025091F0026091F10270919F
:1027D000F2028091F3029091F4020E944709C6CF61
:1027E0002FEF30E040E050E060E070E080E090E00B
:1027F0000E94470925EE32E440E050E060E070E0DE
:1028000080E090E00E94470925EB35E740E050E08A
:1028100060E070E080E090E0E0CF0E94F90CB4CF7F
:1028200080917F02B1E08B2780937F02ADCF8091B2
:10283000ED0280930101A8CF8091010190E02091E9
:10284000ED0235E0389FF001399FF00D1124EF556E
:10285000FD4F218380589D4FDC0152962C93AACFC7
:1028600080E00E94BB0B682F70E080E294E033CEE2
:102870000091ED021091EE022091EF023091F002F2
:102880004091F1025091F2026091F3027091F402D2
:1028900082E582CE1F921F92E4ECF1E0FF93EF936A
:1028A0003F922F920E9435160E941207C1010E948A
:1028B000F8060E9412070F900F900F900F900F9044
:1028C0000F9007CD6091ED026093000170E089E107
:1028D00094E001CE5091ED024091EE02CA01309198
:1028E000EF022091F0029093040180930501309350
:1028F000060120930701692F782F81E194E0EBCD49
:1029000070E060E089E094E00E9438090E941B0DAD
:10291000E0CC6091ED027091EE028AEF93E00E94AC
:1029200038090091ED021091EE022091EF023091F2
:10293000F0024091F1025091F2026091F302709125
:10294000F40286E529CE6091FA0231E063276093B4
:10295000FA0270E08FEE93E00E94380981E098E57A
:10296000891280E08093F902A8E58A12B2CC8BE448
:1029700091E00E94F80688EC91E00E94F806A9CC4C
:102980006091ED0260937E0270E08AEE93E0A3CD49
:1029900061E080917D02811160E060937D0270E0D2
:1029A00082EE93E098CD682D880C770B8EED93E046
:1029B0000E9438098DEC93E00E941A0784E893E0A6
:1029C0000E941A0789E593E00E941A078AE293E0C1
:1029D0000E941A0789EC92E00E941A078AE892E0A6
:1029E0000E941A0788E792E00E941A0785E592E0A4
:1029F0000E941A076ECC815080930301B2CCF999E2
:102A0000FECF92BD81BDF89A992780B50895262FF3
:102A1000F999FECF1FBA92BD81BD20BD0FB6F894C3
:102A2000FA9AF99A0FBE01960895A1E21A2EAA1BEE
:102A3000BB1BFD010DC0AA1FBB1FEE1FFF1FA2176E
:102A4000B307E407F50720F0A21BB30BE40BF50B6B
:102A5000661F771F881F991F1A9469F760957095F4
:102A6000809590959B01AC01BD01CF010895EE0FBB
:102A7000FF1F0590F491E02D09940E942616A59F52
:102A8000900DB49F900DA49F800D911D1124089569
:102A9000DF93CF931F930F939A9DF02D219FF00DFD
:102AA0008B9DF00D8A9DE02DF10D039FF00D029F8F
:102AB000E00DF11D4E9DE00DF11D5E9DF00D4F9D51
:102AC000F00D7F936F93BF92AF925F934F93D501B9
:102AD0000E9426168B01AC01D7010E942616EB013D
:102AE000E80FF91FD6010E9497152F913F91D6014B
:102AF0000E942616C60FD71FE81FF91FAF91BF917E
:102B00000E9497152F913F910E942616C60FD71F3E
:102B1000E81FF91FD6010E942616E60FF71F98013D
:102B2000BE01CF010F911F91CF91DF9108950E94B7
:102B30002616460F571FC81FD91F08F4319608954F
:102B4000689401C0E8948F929F92CF93DF930E9484
:102B5000AE15DF91CF919F908F900895882499248E
:102B6000F401E401B0E49F93AA279A158B049C0416
:102B7000ED05FE05CF05D007A10798F4AD2FDC2F9A
:102B8000CF2FFE2FE92D982C892E982F872F762F67
:102B9000652F542F432F322F2227B85031F7BF9182
:102BA00027C01B2EBF91BB27220F331F441F551F69
:102BB000661F771F881F991F881C991CEE1FFF1F17
:102BC000CC1FDD1FAA1FBB1F8A149B04EC05FD054B
:102BD000CE05DF05A007B10748F08A189B08EC096D
:102BE000FD09CE09DF09A00BB10B21601A94E1F6B3
:102BF0002EF49401AF01BE01CD01000C08952A0D01
:102C00003B1D4C1D5D1D6E1D7F1D801F911F089576
:102C10002A193B094C095D096E097F09800B910B4C
:102C200008952A153B054C055D056E057F05800757
:102C3000910708950024A7FD00942A173005400548
:102C4000500560057005800590050895A29FB001AC
:102C5000B39FC001A39F700D811D1124911DB29FD0
:102C6000700D811D1124911D0895AEE0B0E0EBE3DD
:102C7000F6E10C94E4180D891E8986E08C831A8392
:102C800009838FEF9FE79E838D83AE01475E5F4F81
:102C90006F89788DCE0101960E9458162F81388554
:102CA000020F131FF80110822E96E4E00C94001915
:102CB000ABE0B0E0EEE5F6E10C94D6187C013B0108
:102CC0008A01FC0117821682838181FFC8C1CE016F
:102CD00001965C01F7019381F30193FD859193FFC8
:102CE00081913F01882309F453C1853239F493FD62
:102CF000859193FF81913F01853229F4B70190E0DE
:102D00000E944818E7CF912C212C312CFFE1F315BC
:102D100038F08B3211F190F4803209F1833229F1CD
:102D200037FC3CC020ED280F2A3050F536FE20C07D
:102D30008AE0989E200D1124922E06C08D3291F0CB
:102D4000803371F7689430F8F30193FD859193FF18
:102D500081913F018111DACF21C0689431F86894E4
:102D600032F8F2CF689433F8EFCF689434F8ECCFB0
:102D7000EAE02E9E200D1124222E689435F8E4CF2F
:102D80008E3229F436FC04C1689436F8DDCF8C36D7
:102D900019F4689437F8D8CF8836B1F2982F9F7D10
:102DA00095549330E0F08336A1F18337C1F1833538
:102DB00009F063C02801F2E04F0E511CF801C080F9
:102DC000D180692D70E036FC02C06FEF7FEFC60145
:102DD0000E9432184C01689437F882010AC00C5FD7
:102DE0001F4FFFE3F98388248394912C6501E894B5
:102DF00037F833FE2DC0522C8114910471F5552003
:102E000009F468CFB70180E290E00E9448185A9414
:102E1000F6CFF801808189830E5F1F4FE4CF280130
:102E2000F2E04F0E511CF801C080D180692D70E096
:102E300036FC02C06FEF7FEFC6010E943D184C01C7
:102E40008201D5CFB70180E290E00E9448182A9411
:102E50002814190409F0B0F7CECFF60137FC85919C
:102E600037FE81916F01B70190E00E944818511020
:102E70005A94F1E08F1A9108BFCF843619F0893641
:102E800009F077C0F80137FE6BC0608171818281E3
:102E900093810C5F1F4FF32DFF763F2E97FF09C0E4
:102EA00090958095709561957F4F8F4F9F4F689457
:102EB00037F82AE030E0A5010E947818C82ECA1819
:102EC0008C2C432C36FE0CC0E89440F8C91440F416
:102ED00034FE05C032FC03C0F32DFE7E4F2E892C3C
:102EE00044FE95C0FE01EC0DF11D8081803309F098
:102EF00087C0242D297E422E842D8870582E43FCB5
:102F000095C040FE8FC09C2C821418F42C0C922C7F
:102F1000981844FE91C0B70180E390E00E944818E1
:102F200042FE09C088E790E041FE02C088E590E0DB
:102F3000B7010E944818C91408F48AC0CA94D12C59
:102F40009FEFC91AD90ACA0CDB1CF60182916F01E6
:102F5000B70190E00E944818AC14BD04B1F74FCF00
:102F600060817181072E000C880B990B0E5F1F4F3B
:102F700092CFD32CE894D4F82AE030E0853739F1A9
:102F8000232D297FD22E8F3601F148F48835A9F000
:102F9000F701868197812B96E2E10C94F218803735
:102FA00049F08837A9F7D4FE02C06894D2F820E12E
:102FB00030E00DC06894D4F8F6CF34FE03C0822F01
:102FC0008660D82E20E132E002C028E030E0F8012F
:102FD000D7FE0FC060817181828193810C5F1F4F8A
:102FE000A5010E947818C82ECA183D2CE89437F81D
:102FF00067CF6081718190E080E00E5F1F4FF0CF5E
:1030000042FC02C0839478CF8394839475CF842D3F
:10301000867809F471CFF6CFB70180E290E00E9484
:10302000481883948214C0F3512C73CF522C581833
:10303000821408F46ECFF8CF842D867809F47BCF04
:103040008BE241FE80E247FC8DE2B70190E071CF58
:10305000B70180E390E00E9448189A946CCF8FEFFC
:103060009FEF99CFFC010590615070400110D8F797
:10307000809590958E0F9F1F0895FC0161507040C0
:1030800001900110D8F7809590958E0F9F1F08959D
:103090000F931F93CF93DF93182F092FEB018B8191
:1030A00081FD09C01FEF0FEF812F902FDF91CF918E
:1030B0001F910F91089582FF14C02E813F818C8152
:1030C0009D81281739073CF4E881F981CF010196E9
:1030D0009983888310838E819F8101969F838E833D
:1030E000E3CFE885F985812F0995892BA1F3DACF04
:1030F000FA01AA27283051F1203181F1E8946F9329
:103100006E7F6E5F7F4F8F4F9F4FAF4FB1E03ED0CE
:10311000B4E03CD0670F781F891F9A1FA11D680F6C
:10312000791F8A1F911DA11D6A0F711D811D911D9F
:10313000A11D20D009F468943F912AE0269F112414
:103140003019305D3193DEF6CF010895462F477078
:10315000405D4193B3E00FD0C9F7F6CF462F4F70D3
:10316000405D4A3318F0495D31FD4052419302D031
:10317000A9F7EACFB4E0A6959795879577956795D7
:10318000BA95C9F700976105710508959B01AC01D7
:103190000A2E06945795479537952795BA95C9F7FE
:1031A000620F731F841F951FA01D08952F923F92D9
:1031B0004F925F926F927F928F929F92AF92BF9247
:1031C000CF92DF92EF92FF920F931F93CF93DF93F3
:1031D000CDB7DEB7CA1BDB0B0FB6F894DEBF0FBE50
:1031E000CDBF09942A88398848885F846E847D849D
:1031F0008C849B84AA84B984C884DF80EE80FD809F
:103200000C811B81AA81B981CE0FD11D0FB6F89414
:0E321000DEBF0FBECDBFED010895F894FFCFD5
:10321E0004010102E803000000000000F202520265
:10322E007F025A03B0028E02A20200000000CA05FD
:10323E009D05F90573059605830574050D0A002590
:10324E00326420202563202020253264202025632F
:10325E0020202563202563202573001B5B4800205A
:10326E003E002020002532642020202532642020BC
:10327E0025326420202532642020202563202563FA
:10328E00202025326400436865636B20253264205C
:10329E0025632025630073746172746520746173F5
:1032AE006B20253264206F6E2025326420205372ED
:1032BE007420256320202573004C2025752025635E
:1032CE002073746120256320656C6120256C750068
:1032DE0008003000253675001B5B4A007072694D80
:1032EE006173746572204170722031372032303232
:0C32FE00312030343A34333A32310000D1
:00000001FF
